{
  "contractName": "WorldHouse",
  "abi": [
    {
      "inputs": [],
      "payable": false,
      "stateMutability": "nonpayable",
      "type": "constructor"
    },
    {
      "anonymous": false,
      "inputs": [
        {
          "indexed": false,
          "name": "buyer",
          "type": "address"
        }
      ],
      "name": "BuySuccess",
      "type": "event"
    },
    {
      "constant": true,
      "inputs": [],
      "name": "getHouse",
      "outputs": [
        {
          "name": "",
          "type": "uint16"
        },
        {
          "name": "",
          "type": "uint16"
        },
        {
          "name": "",
          "type": "uint16"
        },
        {
          "name": "",
          "type": "uint8"
        }
      ],
      "payable": false,
      "stateMutability": "view",
      "type": "function"
    },
    {
      "constant": true,
      "inputs": [
        {
          "name": "owners",
          "type": "address[]"
        }
      ],
      "name": "getHouseId",
      "outputs": [
        {
          "name": "",
          "type": "uint256[]"
        }
      ],
      "payable": false,
      "stateMutability": "view",
      "type": "function"
    },
    {
      "constant": false,
      "inputs": [
        {
          "name": "row",
          "type": "uint16"
        },
        {
          "name": "col",
          "type": "uint16"
        },
        {
          "name": "id",
          "type": "uint16"
        }
      ],
      "name": "buyHouse",
      "outputs": [],
      "payable": false,
      "stateMutability": "nonpayable",
      "type": "function"
    },
    {
      "constant": true,
      "inputs": [
        {
          "name": "rows",
          "type": "uint16[]"
        },
        {
          "name": "cols",
          "type": "uint16[]"
        }
      ],
      "name": "getLandOwners",
      "outputs": [
        {
          "name": "",
          "type": "address[]"
        }
      ],
      "payable": false,
      "stateMutability": "view",
      "type": "function"
    },
    {
      "constant": false,
      "inputs": [
        {
          "name": "row",
          "type": "uint16"
        },
        {
          "name": "col",
          "type": "uint16"
        }
      ],
      "name": "move",
      "outputs": [],
      "payable": false,
      "stateMutability": "nonpayable",
      "type": "function"
    }
  ],
  "bytecode": "0x608060405234801561001057600080fd5b50336000806101000a81548173ffffffffffffffffffffffffffffffffffffffff021916908373ffffffffffffffffffffffffffffffffffffffff160217905550610d09806100606000396000f30060806040526004361061006d576000357c0100000000000000000000000000000000000000000000000000000000900463ffffffff16806304e2064f14610072578063311f8c9e146100d05780633a66e3ad1461010f57806375266e221461015c57806380a26c861461025a575b600080fd5b34801561007e57600080fd5b50610087610315565b604051808561ffff1661ffff1681526020018461ffff1661ffff1681526020018361ffff1661ffff1681526020018260ff1660ff16815260200194505050505060405180910390f35b3480156100dc57600080fd5b5061010d600480360381019080803561ffff169060200190929190803561ffff1690602001909291905050506103b8565b005b34801561011b57600080fd5b5061015a600480360381019080803561ffff169060200190929190803561ffff169060200190929190803561ffff1690602001909291905050506107bb565b005b34801561016857600080fd5b506102036004803603810190808035906020019082018035906020019080806020026020016040519081016040528093929190818152602001838360200280828437820191505050505050919291929080359060200190820180359060200190808060200260200160405190810160405280939291908181526020018383602002808284378201915050505050509192919290505050610a6a565b6040518080602001828103825283818151815260200191508051906020019060200280838360005b8381101561024657808201518184015260208101905061022b565b505050509050019250505060405180910390f35b34801561026657600080fd5b506102be60048036038101908080359060200190820180359060200190808060200260200160405190810160405280939291908181526020018383602002808284378201915050505050509192919290505050610bac565b6040518080602001828103825283818151815260200191508051906020019060200280838360005b838110156103015780820151818401526020810190506102e6565b505050509050019250505060405180910390f35b6000806000806000600160003373ffffffffffffffffffffffffffffffffffffffff1673ffffffffffffffffffffffffffffffffffffffff16815260200190815260200160002090508060000160009054906101000a900461ffff168160000160029054906101000a900461ffff168260000160049054906101000a900461ffff168360000160069054906101000a900460ff1694509450945094505090919293565b60006103c2610ca5565b600160003373ffffffffffffffffffffffffffffffffffffffff1673ffffffffffffffffffffffffffffffffffffffff168152602001908152602001600020915060018260000160069054906101000a900460ff1660ff1614151561048f576040517f08c379a00000000000000000000000000000000000000000000000000000000081526004018080602001828103825260188152602001807f596f7520646f206e6f742068617665206120686f75736521000000000000000081525060200191505060405180910390fd5b6000600260008661ffff1661ffff16815260200190815260200160002060008561ffff1661ffff16815260200190815260200160002060009054906101000a900473ffffffffffffffffffffffffffffffffffffffff1673ffffffffffffffffffffffffffffffffffffffff16141515610597576040517f08c379a00000000000000000000000000000000000000000000000000000000081526004018080602001828103825260278152602001807f546865206c616e6420796f752077616e7420746f206d6f7665206973206e6f7481526020017f20656d707479210000000000000000000000000000000000000000000000000081525060400191505060405180910390fd5b6000600260008460000160009054906101000a900461ffff1661ffff1661ffff16815260200190815260200160002060008460000160029054906101000a900461ffff1661ffff1661ffff16815260200190815260200160002060006101000a81548173ffffffffffffffffffffffffffffffffffffffff021916908373ffffffffffffffffffffffffffffffffffffffff1602179055506080604051908101604052808561ffff1681526020018461ffff1681526020018360000160049054906101000a900461ffff1661ffff168152602001600160ff16815250905080600160003373ffffffffffffffffffffffffffffffffffffffff1673ffffffffffffffffffffffffffffffffffffffff16815260200190815260200160002060008201518160000160006101000a81548161ffff021916908361ffff16021790555060208201518160000160026101000a81548161ffff021916908361ffff16021790555060408201518160000160046101000a81548161ffff021916908361ffff16021790555060608201518160000160066101000a81548160ff021916908360ff16021790555090505033600260008661ffff1661ffff16815260200190815260200160002060008561ffff1661ffff16815260200190815260200160002060006101000a81548173ffffffffffffffffffffffffffffffffffffffff021916908373ffffffffffffffffffffffffffffffffffffffff16021790555050505050565b6107c3610ca5565b60018060003373ffffffffffffffffffffffffffffffffffffffff1673ffffffffffffffffffffffffffffffffffffffff16815260200190815260200160002060000160069054906101000a900460ff1660ff161415151561088d576040517f08c379a000000000000000000000000000000000000000000000000000000000815260040180806020018281038252600f8152602001807f416c726561647920686173206f6e65000000000000000000000000000000000081525060200191505060405180910390fd5b6080604051908101604052808561ffff1681526020018461ffff1681526020018361ffff168152602001600160ff16815250905080600160003373ffffffffffffffffffffffffffffffffffffffff1673ffffffffffffffffffffffffffffffffffffffff16815260200190815260200160002060008201518160000160006101000a81548161ffff021916908361ffff16021790555060208201518160000160026101000a81548161ffff021916908361ffff16021790555060408201518160000160046101000a81548161ffff021916908361ffff16021790555060608201518160000160066101000a81548160ff021916908360ff16021790555090505033600260008661ffff1661ffff16815260200190815260200160002060008561ffff1661ffff16815260200190815260200160002060006101000a81548173ffffffffffffffffffffffffffffffffffffffff021916908373ffffffffffffffffffffffffffffffffffffffff1602179055507f31b7449f376c6be33190791b67b91ab915d8751fa8a39cc7e88a4c97baa3755f33604051808273ffffffffffffffffffffffffffffffffffffffff1673ffffffffffffffffffffffffffffffffffffffff16815260200191505060405180910390a150505050565b60608060008060008651604051908082528060200260200182016040528015610aa25781602001602082028038833980820191505090505b509350600092505b86518360ff161015610b9f57868360ff16815181101515610ac757fe5b906020019060200201519150858360ff16815181101515610ae457fe5b906020019060200201519050600260008361ffff1661ffff16815260200190815260200160002060008261ffff1661ffff16815260200190815260200160002060009054906101000a900473ffffffffffffffffffffffffffffffffffffffff16848460ff16815181101515610b5657fe5b9060200190602002019073ffffffffffffffffffffffffffffffffffffffff16908173ffffffffffffffffffffffffffffffffffffffff16815250508280600101935050610aaa565b8394505050505092915050565b6060600060606000808551935083604051908082528060200260200182016040528015610be85781602001602082028038833980820191505090505b509250600091505b838260ff161015610c995760016000878460ff16815181101515610c1057fe5b9060200190602002015173ffffffffffffffffffffffffffffffffffffffff1673ffffffffffffffffffffffffffffffffffffffff16815260200190815260200160002090508060000160049054906101000a900461ffff1661ffff16838360ff16815181101515610c7e57fe5b90602001906020020181815250508180600101925050610bf0565b82945050505050919050565b608060405190810160405280600061ffff168152602001600061ffff168152602001600061ffff168152602001600060ff16815250905600a165627a7a7230582085473e7634cfc5daa5b524874b17f0d18ea3b6170ba4b206e22501f6facc783b0029",
  "source": "pragma solidity ^0.4.23;\n\ncontract WorldHouse{\n    address private owner;\n    event BuySuccess(address buyer);\n    struct HouseData{\n        uint16 row;\n        uint16 col;\n        uint16 id;\n        uint8 used;\n    }\n    mapping(address => HouseData) houseRecord;\n    mapping(uint16 => mapping(uint16 => address)) landRecord;\n\n    constructor() public{\n        owner = msg.sender;\n    }\n\n    function getHouse() public view returns(uint16, uint16, uint16, uint8){\n        HouseData storage data = houseRecord[msg.sender];\n        return (data.row, data.col, data.id, data.used);\n    }\n\n    function getHouseId(address[] owners) public view returns(uint[]){\n        uint len = owners.length;\n        uint[] memory datas = new uint[](len);\n        for(uint8 i = 0; i < len; i++){\n            HouseData storage house = houseRecord[owners[i]];\n            datas[i] = house.id;\n        }\n        return datas;\n    }\n\n    function buyHouse(uint16 row, uint16 col, uint16 id) public{\n        require(houseRecord[msg.sender].used != 1, \"Already has one\");\n        HouseData memory data = HouseData(row, col, id, 1);\n        houseRecord[msg.sender] = data;\n        landRecord[row][col] = msg.sender;\n        emit BuySuccess(msg.sender);\n    }\n\n    function getLandOwners(uint16[] rows, uint16[] cols) public view returns(address[]){\n        address[] memory landOwners = new address[](rows.length);\n        for(uint8 i = 0; i < rows.length; i++){\n            uint16 row = rows[i];\n            uint16 col = cols[i]; \n            landOwners[i] = landRecord[row][col];\n        }\n        return landOwners;\n    }\n\n    function move(uint16 row, uint16 col) public {\n        HouseData storage data = houseRecord[msg.sender];\n        require(data.used == 1, \"You do not have a house!\");\n        require(landRecord[row][col] == 0, \"The land you want to move is not empty!\");\n\n        landRecord[data.row][data.col] = 0;\n        HouseData memory newData = HouseData(row, col, data.id, 1);\n        houseRecord[msg.sender] = newData;\n        landRecord[row][col] = msg.sender;\n\n    }\n}",
  "sourcePath": "/fisher/program/ethereum/world-house/contracts/WorldHouse.sol",
  "compiler": {
    "name": "solc",
    "version": "0.4.24+commit.e67f0147.Emscripten.clang"
  },
  "schemaVersion": "2.0.1",
  "updatedAt": "2018-11-15T08:45:58.992Z"
}