{
  "contractName": "WorldHouse",
  "abi": [
    {
      "inputs": [],
      "payable": false,
      "stateMutability": "nonpayable",
      "type": "constructor"
    },
    {
      "anonymous": false,
      "inputs": [
        {
          "indexed": false,
          "name": "buyer",
          "type": "address"
        }
      ],
      "name": "BuySuccess",
      "type": "event"
    },
    {
      "constant": true,
      "inputs": [],
      "name": "greet",
      "outputs": [
        {
          "name": "",
          "type": "string"
        }
      ],
      "payable": false,
      "stateMutability": "view",
      "type": "function"
    },
    {
      "constant": true,
      "inputs": [],
      "name": "getHouse",
      "outputs": [
        {
          "name": "",
          "type": "uint16"
        },
        {
          "name": "",
          "type": "uint16"
        },
        {
          "name": "",
          "type": "uint8"
        }
      ],
      "payable": false,
      "stateMutability": "view",
      "type": "function"
    },
    {
      "constant": false,
      "inputs": [
        {
          "name": "row",
          "type": "uint16"
        },
        {
          "name": "col",
          "type": "uint16"
        }
      ],
      "name": "buyHouse",
      "outputs": [],
      "payable": false,
      "stateMutability": "nonpayable",
      "type": "function"
    },
    {
      "constant": true,
      "inputs": [
        {
          "name": "rows",
          "type": "uint16[]"
        },
        {
          "name": "cols",
          "type": "uint16[]"
        }
      ],
      "name": "getGridInfos",
      "outputs": [
        {
          "name": "",
          "type": "address[]"
        }
      ],
      "payable": false,
      "stateMutability": "view",
      "type": "function"
    },
    {
      "constant": false,
      "inputs": [
        {
          "name": "row",
          "type": "uint16"
        },
        {
          "name": "col",
          "type": "uint16"
        }
      ],
      "name": "move",
      "outputs": [],
      "payable": false,
      "stateMutability": "nonpayable",
      "type": "function"
    }
  ],
  "bytecode": "0x608060405234801561001057600080fd5b50336000806101000a81548173ffffffffffffffffffffffffffffffffffffffff021916908373ffffffffffffffffffffffffffffffffffffffff1602179055506040805190810160405280601681526020017f57656c636f6d6520746f20576f726c64486f75736521000000000000000000008152506001908051906020019061009c9291906100a2565b50610147565b828054600181600116156101000203166002900490600052602060002090601f016020900481019282601f106100e357805160ff1916838001178555610111565b82800160010185558215610111579182015b828111156101105782518255916020019190600101906100f5565b5b50905061011e9190610122565b5090565b61014491905b80821115610140576000816000905550600101610128565b5090565b90565b610bdb806101566000396000f30060806040526004361061006d576000357c0100000000000000000000000000000000000000000000000000000000900463ffffffff16806304e2064f14610072578063311f8c9e146100c1578063cfae321714610100578063d770920c14610190578063e1a4f988146101cf575b600080fd5b34801561007e57600080fd5b506100876102cd565b604051808461ffff1661ffff1681526020018361ffff1661ffff1681526020018260ff1660ff168152602001935050505060405180910390f35b3480156100cd57600080fd5b506100fe600480360381019080803561ffff169060200190929190803561ffff169060200190929190505050610358565b005b34801561010c57600080fd5b5061011561071c565b6040518080602001828103825283818151815260200191508051906020019080838360005b8381101561015557808201518184015260208101905061013a565b50505050905090810190601f1680156101825780820380516001836020036101000a031916815260200191505b509250505060405180910390f35b34801561019c57600080fd5b506101cd600480360381019080803561ffff169060200190929190803561ffff1690602001909291905050506107be565b005b3480156101db57600080fd5b506102766004803603810190808035906020019082018035906020019080806020026020016040519081016040528093929190818152602001838360200280828437820191505050505050919291929080359060200190820180359060200190808060200260200160405190810160405280939291908181526020018383602002808284378201915050505050509192919290505050610a40565b6040518080602001828103825283818151815260200191508051906020019060200280838360005b838110156102b957808201518184015260208101905061029e565b505050509050019250505060405180910390f35b600080600080600260003373ffffffffffffffffffffffffffffffffffffffff1673ffffffffffffffffffffffffffffffffffffffff16815260200190815260200160002090508060000160009054906101000a900461ffff168160000160029054906101000a900461ffff168260000160049054906101000a900460ff1693509350935050909192565b6000610362610b82565b600260003373ffffffffffffffffffffffffffffffffffffffff1673ffffffffffffffffffffffffffffffffffffffff168152602001908152602001600020915060018260000160049054906101000a900460ff1660ff1614151561042f576040517f08c379a00000000000000000000000000000000000000000000000000000000081526004018080602001828103825260188152602001807f596f7520646f206e6f742068617665206120686f75736521000000000000000081525060200191505060405180910390fd5b6000600360008661ffff1661ffff16815260200190815260200160002060008561ffff1661ffff16815260200190815260200160002060009054906101000a900473ffffffffffffffffffffffffffffffffffffffff1673ffffffffffffffffffffffffffffffffffffffff16141515610537576040517f08c379a00000000000000000000000000000000000000000000000000000000081526004018080602001828103825260278152602001807f546865206c616e6420796f752077616e7420746f206d6f7665206973206e6f7481526020017f20656d707479210000000000000000000000000000000000000000000000000081525060400191505060405180910390fd5b6000600360008460000160009054906101000a900461ffff1661ffff1661ffff16815260200190815260200160002060008460000160029054906101000a900461ffff1661ffff1661ffff16815260200190815260200160002060006101000a81548173ffffffffffffffffffffffffffffffffffffffff021916908373ffffffffffffffffffffffffffffffffffffffff1602179055506060604051908101604052808561ffff1681526020018461ffff168152602001600160ff16815250905080600260003373ffffffffffffffffffffffffffffffffffffffff1673ffffffffffffffffffffffffffffffffffffffff16815260200190815260200160002060008201518160000160006101000a81548161ffff021916908361ffff16021790555060208201518160000160026101000a81548161ffff021916908361ffff16021790555060408201518160000160046101000a81548160ff021916908360ff16021790555090505033600360008661ffff1661ffff16815260200190815260200160002060008561ffff1661ffff16815260200190815260200160002060006101000a81548173ffffffffffffffffffffffffffffffffffffffff021916908373ffffffffffffffffffffffffffffffffffffffff16021790555050505050565b606060018054600181600116156101000203166002900480601f0160208091040260200160405190810160405280929190818152602001828054600181600116156101000203166002900480156107b45780601f10610789576101008083540402835291602001916107b4565b820191906000526020600020905b81548152906001019060200180831161079757829003601f168201915b5050505050905090565b6107c6610b82565b6001600260003373ffffffffffffffffffffffffffffffffffffffff1673ffffffffffffffffffffffffffffffffffffffff16815260200190815260200160002060000160049054906101000a900460ff1660ff1614151515610891576040517f08c379a000000000000000000000000000000000000000000000000000000000815260040180806020018281038252600f8152602001807f416c726561647920686173206f6e65000000000000000000000000000000000081525060200191505060405180910390fd5b6060604051908101604052808461ffff1681526020018361ffff168152602001600160ff16815250905080600260003373ffffffffffffffffffffffffffffffffffffffff1673ffffffffffffffffffffffffffffffffffffffff16815260200190815260200160002060008201518160000160006101000a81548161ffff021916908361ffff16021790555060208201518160000160026101000a81548161ffff021916908361ffff16021790555060408201518160000160046101000a81548160ff021916908360ff16021790555090505033600360008561ffff1661ffff16815260200190815260200160002060008461ffff1661ffff16815260200190815260200160002060006101000a81548173ffffffffffffffffffffffffffffffffffffffff021916908373ffffffffffffffffffffffffffffffffffffffff1602179055507f31b7449f376c6be33190791b67b91ab915d8751fa8a39cc7e88a4c97baa3755f33604051808273ffffffffffffffffffffffffffffffffffffffff1673ffffffffffffffffffffffffffffffffffffffff16815260200191505060405180910390a1505050565b60608060008060008651604051908082528060200260200182016040528015610a785781602001602082028038833980820191505090505b509350600092505b86518360ff161015610b7557868360ff16815181101515610a9d57fe5b906020019060200201519150858360ff16815181101515610aba57fe5b906020019060200201519050600360008361ffff1661ffff16815260200190815260200160002060008261ffff1661ffff16815260200190815260200160002060009054906101000a900473ffffffffffffffffffffffffffffffffffffffff16848460ff16815181101515610b2c57fe5b9060200190602002019073ffffffffffffffffffffffffffffffffffffffff16908173ffffffffffffffffffffffffffffffffffffffff16815250508280600101935050610a80565b8394505050505092915050565b606060405190810160405280600061ffff168152602001600061ffff168152602001600060ff16815250905600a165627a7a72305820407f3e60d92f3dd9f9e9656fefc87adf102d9c8df8c6d06b2ec7c6c18e22695a0029",
  "source": "pragma solidity ^0.4.23;\n\ncontract WorldHouse{\n    address private owner;\n    string private greetMsg;\n    event BuySuccess(address buyer);\n    struct HouseData{\n        uint16 row;\n        uint16 col;\n        uint8 used;\n    }\n    mapping(address => HouseData) houseRecord;\n    mapping(uint16 => mapping(uint16 => address)) grid;\n\n    constructor() public{\n        owner = msg.sender;\n        greetMsg = \"Welcome to WorldHouse!\";\n    }\n\n    function greet() public view returns(string){\n        return greetMsg;\n    }\n\n    function getHouse() public view returns(uint16, uint16, uint8){\n        HouseData storage data = houseRecord[msg.sender];\n        return (data.row, data.col, data.used);\n    }\n\n    function buyHouse(uint16 row, uint16 col) public{\n        require(houseRecord[msg.sender].used != 1, \"Already has one\");\n        HouseData memory data = HouseData(row, col, 1);\n        houseRecord[msg.sender] = data;\n        grid[row][col] = msg.sender;\n        emit BuySuccess(msg.sender);\n    }\n\n    function getGridInfos(uint16[] rows, uint16[] cols) public view returns(address[]){\n        address[] memory gridOwners = new address[](rows.length);\n        for(uint8 i = 0; i < rows.length; i++){\n            uint16 row = rows[i];\n            uint16 col = cols[i]; \n            gridOwners[i] = grid[row][col];\n        }\n        return gridOwners;\n    }\n\n    function move(uint16 row, uint16 col) public {\n        HouseData storage data = houseRecord[msg.sender];\n        require(data.used == 1, \"You do not have a house!\");\n        require(grid[row][col] == 0, \"The land you want to move is not empty!\");\n\n        grid[data.row][data.col] = 0;\n        HouseData memory newData = HouseData(row, col, 1);\n        houseRecord[msg.sender] = newData;\n        grid[row][col] = msg.sender;\n\n    }\n}",
  "sourcePath": "/fisher/program/ethereum/world-house/contracts/WorldHouse.sol",
  "compiler": {
    "name": "solc",
    "version": "0.4.24+commit.e67f0147.Emscripten.clang"
  },
  "schemaVersion": "2.0.1",
  "updatedAt": "2018-11-15T06:51:38.804Z"
}