{
  "contractName": "WorldHouse",
  "abi": [
    {
      "inputs": [],
      "payable": false,
      "stateMutability": "nonpayable",
      "type": "constructor"
    },
    {
      "constant": true,
      "inputs": [],
      "name": "getHouse",
      "outputs": [
        {
          "name": "",
          "type": "uint256"
        },
        {
          "name": "",
          "type": "uint256"
        },
        {
          "name": "",
          "type": "bool"
        }
      ],
      "payable": false,
      "stateMutability": "view",
      "type": "function"
    },
    {
      "constant": false,
      "inputs": [
        {
          "name": "row",
          "type": "uint256"
        },
        {
          "name": "col",
          "type": "uint256"
        }
      ],
      "name": "buyHouse",
      "outputs": [],
      "payable": false,
      "stateMutability": "nonpayable",
      "type": "function"
    }
  ],
  "bytecode": "0x608060405234801561001057600080fd5b50336000806101000a81548173ffffffffffffffffffffffffffffffffffffffff021916908373ffffffffffffffffffffffffffffffffffffffff1602179055506040805190810160405280601681526020017f57656c636f6d6520746f20576f726c64486f75736521000000000000000000008152506001908051906020019061009c9291906100a2565b50610147565b828054600181600116156101000203166002900490600052602060002090601f016020900481019282601f106100e357805160ff1916838001178555610111565b82800160010185558215610111579182015b828111156101105782518255916020019190600101906100f5565b5b50905061011e9190610122565b5090565b61014491905b80821115610140576000816000905550600101610128565b5090565b90565b6102f4806101566000396000f30060806040526004361061004c576000357c0100000000000000000000000000000000000000000000000000000000900463ffffffff16806304e2064f1461005157806383716e6d1461008e575b600080fd5b34801561005d57600080fd5b506100666100c5565b6040518084815260200183815260200182151515158152602001935050505060405180910390f35b34801561009a57600080fd5b506100c36004803603810190808035906020019092919080359060200190929190505050610134565b005b600080600080600260003373ffffffffffffffffffffffffffffffffffffffff1673ffffffffffffffffffffffffffffffffffffffff1681526020019081526020016000209050806000015481600101548260020160009054906101000a900460ff1693509350935050909192565b61013c6102a4565b60011515600260003373ffffffffffffffffffffffffffffffffffffffff1673ffffffffffffffffffffffffffffffffffffffff16815260200190815260200160002060020160009054906101000a900460ff161515141515610207576040517f08c379a000000000000000000000000000000000000000000000000000000000815260040180806020018281038252600f8152602001807f416c726561647920686173206f6e65000000000000000000000000000000000081525060200191505060405180910390fd5b60606040519081016040528084815260200183815260200160011515815250905080600260003373ffffffffffffffffffffffffffffffffffffffff1673ffffffffffffffffffffffffffffffffffffffff168152602001908152602001600020600082015181600001556020820151816001015560408201518160020160006101000a81548160ff021916908315150217905550905050505050565b606060405190810160405280600081526020016000815260200160001515815250905600a165627a7a72305820b4984ea9adbe3620f9a4b07621c4019761fe22d10fb5ca9d41fb6a528b7debb80029",
  "source": "pragma solidity ^0.4.23;\n\ncontract WorldHouse{\n    address private owner;\n    string private greeting;\n    struct HouseData{\n        uint row;\n        uint col;\n        bool used;\n    }\n    mapping(address => HouseData) houseRecord;\n\n    constructor() public{\n        owner = msg.sender;\n        greeting = \"Welcome to WorldHouse!\";\n    }\n\n    function getHouse() public view returns(uint, uint, bool){\n        HouseData storage data = houseRecord[msg.sender];\n        return (data.row, data.col, data.used);\n    }\n\n    function buyHouse(uint row, uint col) public{\n        require(houseRecord[msg.sender].used == true, \"Already has one\");\n        HouseData memory data = HouseData(row, col, true);\n        houseRecord[msg.sender] = data;\n    }\n\n}",
  "sourcePath": "/fisher/program/ethereum/world-house/contracts/WorldHouse.sol",
  "compiler": {
    "name": "solc",
    "version": "0.4.24+commit.e67f0147.Emscripten.clang"
  },
  "schemaVersion": "2.0.1",
  "updatedAt": "2018-11-05T08:08:18.469Z"
}