{
  "contractName": "WorldHouse",
  "abi": [
    {
      "inputs": [],
      "payable": false,
      "stateMutability": "nonpayable",
      "type": "constructor"
    },
    {
      "anonymous": false,
      "inputs": [
        {
          "indexed": false,
          "name": "buyer",
          "type": "address"
        }
      ],
      "name": "BuySuccess",
      "type": "event"
    },
    {
      "constant": true,
      "inputs": [],
      "name": "getHouse",
      "outputs": [
        {
          "name": "",
          "type": "uint16"
        },
        {
          "name": "",
          "type": "uint16"
        },
        {
          "name": "",
          "type": "uint16"
        },
        {
          "name": "",
          "type": "uint8"
        }
      ],
      "payable": false,
      "stateMutability": "view",
      "type": "function"
    },
    {
      "constant": true,
      "inputs": [
        {
          "name": "owners",
          "type": "address[]"
        }
      ],
      "name": "getHouses",
      "outputs": [
        {
          "name": "",
          "type": "uint256[]"
        }
      ],
      "payable": false,
      "stateMutability": "view",
      "type": "function"
    },
    {
      "constant": true,
      "inputs": [
        {
          "name": "rows",
          "type": "uint16[]"
        },
        {
          "name": "cols",
          "type": "uint16[]"
        }
      ],
      "name": "getEnvs",
      "outputs": [
        {
          "name": "",
          "type": "uint16[]"
        }
      ],
      "payable": false,
      "stateMutability": "view",
      "type": "function"
    },
    {
      "constant": false,
      "inputs": [
        {
          "name": "row",
          "type": "uint16"
        },
        {
          "name": "col",
          "type": "uint16"
        },
        {
          "name": "id",
          "type": "uint16"
        }
      ],
      "name": "buyHouse",
      "outputs": [],
      "payable": true,
      "stateMutability": "payable",
      "type": "function"
    },
    {
      "constant": false,
      "inputs": [
        {
          "name": "row",
          "type": "uint16"
        },
        {
          "name": "col",
          "type": "uint16"
        },
        {
          "name": "id",
          "type": "uint16"
        }
      ],
      "name": "buyEnv",
      "outputs": [],
      "payable": true,
      "stateMutability": "payable",
      "type": "function"
    },
    {
      "constant": true,
      "inputs": [
        {
          "name": "rows",
          "type": "uint16[]"
        },
        {
          "name": "cols",
          "type": "uint16[]"
        }
      ],
      "name": "getLandOwners",
      "outputs": [
        {
          "name": "",
          "type": "address[]"
        }
      ],
      "payable": false,
      "stateMutability": "view",
      "type": "function"
    },
    {
      "constant": false,
      "inputs": [
        {
          "name": "row",
          "type": "uint16"
        },
        {
          "name": "col",
          "type": "uint16"
        }
      ],
      "name": "move",
      "outputs": [],
      "payable": false,
      "stateMutability": "nonpayable",
      "type": "function"
    },
    {
      "constant": true,
      "inputs": [],
      "name": "getBasePrice",
      "outputs": [
        {
          "name": "",
          "type": "uint256"
        }
      ],
      "payable": false,
      "stateMutability": "view",
      "type": "function"
    },
    {
      "constant": true,
      "inputs": [],
      "name": "isOwner",
      "outputs": [
        {
          "name": "",
          "type": "bool"
        }
      ],
      "payable": false,
      "stateMutability": "view",
      "type": "function"
    },
    {
      "constant": true,
      "inputs": [],
      "name": "getBalance",
      "outputs": [
        {
          "name": "",
          "type": "uint256"
        }
      ],
      "payable": false,
      "stateMutability": "view",
      "type": "function"
    },
    {
      "constant": false,
      "inputs": [],
      "name": "withdraw",
      "outputs": [],
      "payable": false,
      "stateMutability": "nonpayable",
      "type": "function"
    }
  ],
  "bytecode": "0x608060405234801561001057600080fd5b50336000806101000a81548173ffffffffffffffffffffffffffffffffffffffff021916908373ffffffffffffffffffffffffffffffffffffffff16021790555061163a806100606000396000f3006080604052600436106100af576000357c0100000000000000000000000000000000000000000000000000000000900463ffffffff16806304e2064f146100b457806312065fe0146101125780632440b09b1461013d578063311f8c9e1461023b5780633a66e3ad1461027a5780633ccfd60b146102ba5780634f0803c6146102d1578063580e1d9f1461038c57806375266e22146103cc5780638f32d59b146104ca578063b49f4afd146104f9575b600080fd5b3480156100c057600080fd5b506100c9610524565b604051808561ffff1661ffff1681526020018461ffff1661ffff1681526020018361ffff1661ffff1681526020018260ff1660ff16815260200194505050505060405180910390f35b34801561011e57600080fd5b506101276105c7565b6040518082815260200191505060405180910390f35b34801561014957600080fd5b506101e460048036038101908080359060200190820180359060200190808060200260200160405190810160405280939291908181526020018383602002808284378201915050505050509192919290803590602001908201803590602001908080602002602001604051908101604052809392919081815260200183836020028082843782019150505050505091929192905050506106aa565b6040518080602001828103825283818151815260200191508051906020019060200280838360005b8381101561022757808201518184015260208101905061020c565b505050509050019250505060405180910390f35b34801561024757600080fd5b50610278600480360381019080803561ffff169060200190929190803561ffff1690602001909291905050506107b6565b005b6102b8600480360381019080803561ffff169060200190929190803561ffff169060200190929190803561ffff169060200190929190505050610ae3565b005b3480156102c657600080fd5b506102cf610dd6565b005b3480156102dd57600080fd5b5061033560048036038101908080359060200190820180359060200190808060200260200160405190810160405280939291908181526020018383602002808284378201915050505050509192919290505050610f0b565b6040518080602001828103825283818151815260200191508051906020019060200280838360005b8381101561037857808201518184015260208101905061035d565b505050509050019250505060405180910390f35b6103ca600480360381019080803561ffff169060200190929190803561ffff169060200190929190803561ffff169060200190929190505050611004565b005b3480156103d857600080fd5b506104736004803603810190808035906020019082018035906020019080806020026020016040519081016040528093929190818152602001838360200280828437820191505050505050919291929080359060200190820180359060200190808060200260200160405190810160405280939291908181526020018383602002808284378201915050505050509192919290505050611271565b6040518080602001828103825283818151815260200191508051906020019060200280838360005b838110156104b657808201518184015260208101905061049b565b505050509050019250505060405180910390f35b3480156104d657600080fd5b506104df6113b3565b604051808215151515815260200191505060405180910390f35b34801561050557600080fd5b5061050e61140a565b6040518082815260200191505060405180910390f35b6000806000806000600160003373ffffffffffffffffffffffffffffffffffffffff1673ffffffffffffffffffffffffffffffffffffffff16815260200190815260200160002090508060000160009054906101000a900461ffff168160000160029054906101000a900461ffff168260000160049054906101000a900461ffff168360000160069054906101000a900460ff1694509450945094505090919293565b60008060009054906101000a900473ffffffffffffffffffffffffffffffffffffffff1673ffffffffffffffffffffffffffffffffffffffff163373ffffffffffffffffffffffffffffffffffffffff1614151561068d576040517f08c379a000000000000000000000000000000000000000000000000000000000815260040180806020018281038252600d8152602001807f4163636573732064656e6965640000000000000000000000000000000000000081525060200191505060405180910390fd5b3073ffffffffffffffffffffffffffffffffffffffff1631905090565b606080600080600086516040519080825280602002602001820160405280156106e25781602001602082028038833980820191505090505b509350600092505b86518360ff1610156107a957868360ff1681518110151561070757fe5b906020019060200201519150858360ff1681518110151561072457fe5b906020019060200201519050600360008361ffff1661ffff16815260200190815260200160002060008261ffff1661ffff16815260200190815260200160002060009054906101000a900461ffff16848460ff1681518110151561078457fe5b9060200190602002019061ffff16908161ffff168152505082806001019350506106ea565b8394505050505092915050565b600082826000600260008461ffff1661ffff16815260200190815260200160002060008361ffff1661ffff16815260200190815260200160002060009054906101000a900473ffffffffffffffffffffffffffffffffffffffff1673ffffffffffffffffffffffffffffffffffffffff1614151561089c576040517f08c379a000000000000000000000000000000000000000000000000000000000815260040180806020018281038252601d8152602001807f546865206c616e64206973206f776e656420627920736f6d656f6e652100000081525060200191505060405180910390fd5b6000600360008461ffff1661ffff16815260200190815260200160002060008361ffff1661ffff16815260200190815260200160002060009054906101000a900461ffff1661ffff1614151561095a576040517f08c379a000000000000000000000000000000000000000000000000000000000815260040180806020018281038252601d8152602001807f546865206c616e64206973206f776e656420627920736f6d656f6e652100000081525060200191505060405180910390fd5b600160003373ffffffffffffffffffffffffffffffffffffffff1673ffffffffffffffffffffffffffffffffffffffff168152602001908152602001600020925060018360000160069054906101000a900460ff1660ff16141515610a27576040517f08c379a00000000000000000000000000000000000000000000000000000000081526004018080602001828103825260188152602001807f596f7520646f206e6f742068617665206120686f75736521000000000000000081525060200191505060405180910390fd5b6000600260008560000160009054906101000a900461ffff1661ffff1661ffff16815260200190815260200160002060008560000160029054906101000a900461ffff1661ffff1661ffff16815260200190815260200160002060006101000a81548173ffffffffffffffffffffffffffffffffffffffff021916908373ffffffffffffffffffffffffffffffffffffffff160217905550610adc85858560000160049054906101000a900461ffff16611454565b5050505050565b60018060003373ffffffffffffffffffffffffffffffffffffffff1673ffffffffffffffffffffffffffffffffffffffff16815260200190815260200160002060000160069054906101000a900460ff1660ff1614151515610bad576040517f08c379a000000000000000000000000000000000000000000000000000000000815260040180806020018281038252600f8152602001807f416c726561647920686173206f6e65000000000000000000000000000000000081525060200191505060405180910390fd5b82826000600260008461ffff1661ffff16815260200190815260200160002060008361ffff1661ffff16815260200190815260200160002060009054906101000a900473ffffffffffffffffffffffffffffffffffffffff1673ffffffffffffffffffffffffffffffffffffffff16141515610c91576040517f08c379a000000000000000000000000000000000000000000000000000000000815260040180806020018281038252601d8152602001807f546865206c616e64206973206f776e656420627920736f6d656f6e652100000081525060200191505060405180910390fd5b6000600360008461ffff1661ffff16815260200190815260200160002060008361ffff1661ffff16815260200190815260200160002060009054906101000a900461ffff1661ffff16141515610d4f576040517f08c379a000000000000000000000000000000000000000000000000000000000815260040180806020018281038252601d8152602001807f546865206c616e64206973206f776e656420627920736f6d656f6e652100000081525060200191505060405180910390fd5b610d5a858585611454565b6004600081548092919060010191905055507f31b7449f376c6be33190791b67b91ab915d8751fa8a39cc7e88a4c97baa3755f33604051808273ffffffffffffffffffffffffffffffffffffffff1673ffffffffffffffffffffffffffffffffffffffff16815260200191505060405180910390a15050505050565b6000809054906101000a900473ffffffffffffffffffffffffffffffffffffffff1673ffffffffffffffffffffffffffffffffffffffff163373ffffffffffffffffffffffffffffffffffffffff16141515610e9a576040517f08c379a000000000000000000000000000000000000000000000000000000000815260040180806020018281038252600d8152602001807f4163636573732064656e6965640000000000000000000000000000000000000081525060200191505060405180910390fd5b6000809054906101000a900473ffffffffffffffffffffffffffffffffffffffff1673ffffffffffffffffffffffffffffffffffffffff166108fc610edd6105c7565b9081150290604051600060405180830381858888f19350505050158015610f08573d6000803e3d6000fd5b50565b6060600060606000808551935083604051908082528060200260200182016040528015610f475781602001602082028038833980820191505090505b509250600091505b838260ff161015610ff85760016000878460ff16815181101515610f6f57fe5b9060200190602002015173ffffffffffffffffffffffffffffffffffffffff1673ffffffffffffffffffffffffffffffffffffffff16815260200190815260200160002090508060000160049054906101000a900461ffff1661ffff16838360ff16815181101515610fdd57fe5b90602001906020020181815250508180600101925050610f4f565b82945050505050919050565b82826000600260008461ffff1661ffff16815260200190815260200160002060008361ffff1661ffff16815260200190815260200160002060009054906101000a900473ffffffffffffffffffffffffffffffffffffffff1673ffffffffffffffffffffffffffffffffffffffff161415156110e8576040517f08c379a000000000000000000000000000000000000000000000000000000000815260040180806020018281038252601d8152602001807f546865206c616e64206973206f776e656420627920736f6d656f6e652100000081525060200191505060405180910390fd5b6000600360008461ffff1661ffff16815260200190815260200160002060008361ffff1661ffff16815260200190815260200160002060009054906101000a900461ffff1661ffff161415156111a6576040517f08c379a000000000000000000000000000000000000000000000000000000000815260040180806020018281038252601d8152602001807f546865206c616e64206973206f776e656420627920736f6d656f6e652100000081525060200191505060405180910390fd5b82600360008761ffff1661ffff16815260200190815260200160002060008661ffff1661ffff16815260200190815260200160002060006101000a81548161ffff021916908361ffff1602179055506004600081548092919060010191905055507f31b7449f376c6be33190791b67b91ab915d8751fa8a39cc7e88a4c97baa3755f33604051808273ffffffffffffffffffffffffffffffffffffffff1673ffffffffffffffffffffffffffffffffffffffff16815260200191505060405180910390a15050505050565b606080600080600086516040519080825280602002602001820160405280156112a95781602001602082028038833980820191505090505b509350600092505b86518360ff1610156113a657868360ff168151811015156112ce57fe5b906020019060200201519150858360ff168151811015156112eb57fe5b906020019060200201519050600260008361ffff1661ffff16815260200190815260200160002060008261ffff1661ffff16815260200190815260200160002060009054906101000a900473ffffffffffffffffffffffffffffffffffffffff16848460ff1681518110151561135d57fe5b9060200190602002019073ffffffffffffffffffffffffffffffffffffffff16908173ffffffffffffffffffffffffffffffffffffffff168152505082806001019350506112b1565b8394505050505092915050565b60008060009054906101000a900473ffffffffffffffffffffffffffffffffffffffff1673ffffffffffffffffffffffffffffffffffffffff163373ffffffffffffffffffffffffffffffffffffffff1614905090565b60006103e86004541115156114285766038d7ea4c680009050611451565b620f424060045411151561144557662386f26fc100009050611451565b67016345785d8a000090505b90565b61145c6115d6565b6080604051908101604052808561ffff1681526020018461ffff1681526020018361ffff168152602001600160ff16815250905080600160003373ffffffffffffffffffffffffffffffffffffffff1673ffffffffffffffffffffffffffffffffffffffff16815260200190815260200160002060008201518160000160006101000a81548161ffff021916908361ffff16021790555060208201518160000160026101000a81548161ffff021916908361ffff16021790555060408201518160000160046101000a81548161ffff021916908361ffff16021790555060608201518160000160066101000a81548160ff021916908360ff16021790555090505033600260008661ffff1661ffff16815260200190815260200160002060008561ffff1661ffff16815260200190815260200160002060006101000a81548173ffffffffffffffffffffffffffffffffffffffff021916908373ffffffffffffffffffffffffffffffffffffffff16021790555050505050565b608060405190810160405280600061ffff168152602001600061ffff168152602001600061ffff168152602001600060ff16815250905600a165627a7a7230582078ae333f1cca0906fc5768359d4038f715a2e87d5100410927cb8d43c899754b0029",
  "source": "pragma solidity ^0.4.23;\n\ncontract WorldHouse{\n    address private owner;\n    event BuySuccess(address buyer);\n    struct HouseData{\n        uint16 row;\n        uint16 col;\n        uint16 id;\n        uint8 used;\n    }\n    mapping(address => HouseData) houseRecord;\n    mapping(uint16 => mapping(uint16 => address)) landRecord;\n    mapping(uint16 => mapping(uint16 => uint16)) envRecord;\n    uint count;\n\n    constructor() public{\n        owner = msg.sender;\n    }\n\n    function getHouse() public view returns(uint16, uint16, uint16, uint8){\n        HouseData storage data = houseRecord[msg.sender];\n        return (data.row, data.col, data.id, data.used);\n    }\n\n    function getHouses(address[] owners) public view returns(uint[]){\n        uint len = owners.length;\n        uint[] memory datas = new uint[](len);\n        for(uint8 i = 0; i < len; i++){\n            HouseData storage house = houseRecord[owners[i]];\n            datas[i] = house.id;\n        }\n        return datas;\n    }\n\n    function getEnvs(uint16[] rows, uint16[] cols) public view returns(uint16[]){\n        uint16[] memory envs = new uint16[](rows.length);\n        for(uint8 i = 0; i < rows.length; i++){\n            uint16 row = rows[i];\n            uint16 col = cols[i];\n            envs[i] = envRecord[row][col];\n        }\n        return envs;\n    }\n\n    function buyHouse(uint16 row, uint16 col, uint16 id) public onlyOne targetNotOwned(row, col) payable{\n        _addRecord(row, col, id);\n        count++;\n        emit BuySuccess(msg.sender);\n    }\n\n    function buyEnv(uint16 row, uint16 col, uint16 id) public targetNotOwned(row, col) payable{\n        envRecord[row][col] = id;\n        count++;\n        emit BuySuccess(msg.sender);\n    }\n\n    function getLandOwners(uint16[] rows, uint16[] cols) public view returns(address[]){\n        address[] memory landOwners = new address[](rows.length);\n        for(uint8 i = 0; i < rows.length; i++){\n            uint16 row = rows[i];\n            uint16 col = cols[i]; \n            landOwners[i] = landRecord[row][col];\n        }\n        return landOwners;\n    }\n\n\n    function move(uint16 row, uint16 col) public targetNotOwned(row, col)  {\n        HouseData storage data = houseRecord[msg.sender];\n        require(data.used == 1, \"You do not have a house!\");\n\n        landRecord[data.row][data.col] = 0;\n        _addRecord(row, col,data. id);\n    }\n\n    function getBasePrice() public view returns(uint){\n        if(count <= 1000) return 1e15;\n        else if(count <= 1000000) return 1e16;\n        else return 1e17;\n    }\n\n    function isOwner() public view returns(bool){\n        return msg.sender == owner;\n    }\n\n\n    function getBalance() public view ownerAccess returns(uint){\n        return address(this).balance;\n    }\n\n    function withdraw() public ownerAccess {\n        owner.transfer(getBalance());\n    }\n\n    // midifier\n    modifier ownerAccess(){\n        require(msg.sender == owner, \"Access denied\");\n        _;\n    }\n\n    modifier onlyOne(){\n        require(houseRecord[msg.sender].used != 1, \"Already has one\");\n        _;\n    }\n\n    modifier targetNotOwned(uint16 row, uint16 col){\n        require(landRecord[row][col] == 0, \"The land is owned by someone!\");\n        require(envRecord[row][col] == 0, \"The land is owned by someone!\");\n        _;\n    }\n\n    // private\n    function _addRecord(uint16 row, uint16 col, uint16 id) private{\n        HouseData memory data = HouseData(row, col, id, 1);\n        houseRecord[msg.sender] = data;\n        landRecord[row][col] = msg.sender;\n    }\n}",
  "sourcePath": "/fisher/program/ethereum/world-house/contracts/WorldHouse.sol",
  "compiler": {
    "name": "solc",
    "version": "0.4.24+commit.e67f0147.Emscripten.clang"
  },
  "schemaVersion": "2.0.1",
  "updatedAt": "2018-11-27T21:53:59.601Z"
}