{
  "contractName": "WorldHouse",
  "abi": [
    {
      "inputs": [],
      "payable": false,
      "stateMutability": "nonpayable",
      "type": "constructor"
    },
    {
      "constant": true,
      "inputs": [],
      "name": "greet",
      "outputs": [
        {
          "name": "",
          "type": "string"
        }
      ],
      "payable": false,
      "stateMutability": "view",
      "type": "function"
    },
    {
      "constant": true,
      "inputs": [],
      "name": "getHouse",
      "outputs": [
        {
          "name": "",
          "type": "uint256"
        },
        {
          "name": "",
          "type": "uint256"
        },
        {
          "name": "",
          "type": "bool"
        }
      ],
      "payable": false,
      "stateMutability": "view",
      "type": "function"
    },
    {
      "constant": false,
      "inputs": [
        {
          "name": "row",
          "type": "uint256"
        },
        {
          "name": "col",
          "type": "uint256"
        }
      ],
      "name": "buyHouse",
      "outputs": [],
      "payable": false,
      "stateMutability": "nonpayable",
      "type": "function"
    }
  ],
  "bytecode": "0x608060405234801561001057600080fd5b50336000806101000a81548173ffffffffffffffffffffffffffffffffffffffff021916908373ffffffffffffffffffffffffffffffffffffffff1602179055506040805190810160405280601681526020017f57656c636f6d6520746f20576f726c64486f75736521000000000000000000008152506001908051906020019061009c9291906100a2565b50610147565b828054600181600116156101000203166002900490600052602060002090601f016020900481019282601f106100e357805160ff1916838001178555610111565b82800160010185558215610111579182015b828111156101105782518255916020019190600101906100f5565b5b50905061011e9190610122565b5090565b61014491905b80821115610140576000816000905550600101610128565b5090565b90565b610432806101566000396000f300608060405260043610610057576000357c0100000000000000000000000000000000000000000000000000000000900463ffffffff16806304e2064f1461005c57806383716e6d14610099578063cfae3217146100d0575b600080fd5b34801561006857600080fd5b50610071610160565b6040518084815260200183815260200182151515158152602001935050505060405180910390f35b3480156100a557600080fd5b506100ce60048036038101908080359060200190929190803590602001909291905050506101cf565b005b3480156100dc57600080fd5b506100e5610340565b6040518080602001828103825283818151815260200191508051906020019080838360005b8381101561012557808201518184015260208101905061010a565b50505050905090810190601f1680156101525780820380516001836020036101000a031916815260200191505b509250505060405180910390f35b600080600080600260003373ffffffffffffffffffffffffffffffffffffffff1673ffffffffffffffffffffffffffffffffffffffff1681526020019081526020016000209050806000015481600101548260020160009054906101000a900460ff1693509350935050909192565b6101d76103e2565b60011515600260003373ffffffffffffffffffffffffffffffffffffffff1673ffffffffffffffffffffffffffffffffffffffff16815260200190815260200160002060020160009054906101000a900460ff161515141515156102a3576040517f08c379a000000000000000000000000000000000000000000000000000000000815260040180806020018281038252600f8152602001807f416c726561647920686173206f6e65000000000000000000000000000000000081525060200191505060405180910390fd5b60606040519081016040528084815260200183815260200160011515815250905080600260003373ffffffffffffffffffffffffffffffffffffffff1673ffffffffffffffffffffffffffffffffffffffff168152602001908152602001600020600082015181600001556020820151816001015560408201518160020160006101000a81548160ff021916908315150217905550905050505050565b606060018054600181600116156101000203166002900480601f0160208091040260200160405190810160405280929190818152602001828054600181600116156101000203166002900480156103d85780601f106103ad576101008083540402835291602001916103d8565b820191906000526020600020905b8154815290600101906020018083116103bb57829003601f168201915b5050505050905090565b606060405190810160405280600081526020016000815260200160001515815250905600a165627a7a72305820cda3ff2e215ac5e98f2d96930a375a7297846d250c884cd8960201e94d0499e80029",
  "source": "pragma solidity ^0.4.23;\n\ncontract WorldHouse{\n    address private owner;\n    string private greetMsg;\n    struct HouseData{\n        uint row;\n        uint col;\n        bool used;\n    }\n    mapping(address => HouseData) houseRecord;\n\n    constructor() public{\n        owner = msg.sender;\n        greetMsg = \"Welcome to WorldHouse!\";\n    }\n\n    function greet() public view returns(string){\n        return greetMsg;\n    }\n\n    function getHouse() public view returns(uint, uint, bool){\n        HouseData storage data = houseRecord[msg.sender];\n        return (data.row, data.col, data.used);\n    }\n\n    function buyHouse(uint row, uint col) public{\n        require(houseRecord[msg.sender].used != true, \"Already has one\");\n        HouseData memory data = HouseData(row, col, true);\n        houseRecord[msg.sender] = data;\n    }\n\n}",
  "sourcePath": "/fisher/program/ethereum/world-house/contracts/WorldHouse.sol",
  "compiler": {
    "name": "solc",
    "version": "0.4.24+commit.e67f0147.Emscripten.clang"
  },
  "schemaVersion": "2.0.1",
  "updatedAt": "2018-11-08T07:23:36.887Z"
}